{"abi":[{"type":"constructor","inputs":[{"name":"_issuerAddress","type":"address","internalType":"address"},{"name":"_initialElectionId","type":"uint256","internalType":"uint256"}],"stateMutability":"nonpayable"},{"type":"function","name":"addCandidate","inputs":[{"name":"_name","type":"string","internalType":"string"},{"name":"_party","type":"string","internalType":"string"},{"name":"_imageURL","type":"string","internalType":"string"},{"name":"_slogan","type":"string","internalType":"string"},{"name":"_platform","type":"string[]","internalType":"string[]"}],"outputs":[],"stateMutability":"nonpayable"},{"type":"function","name":"candidates","inputs":[{"name":"","type":"uint256","internalType":"uint256"}],"outputs":[{"name":"id","type":"uint256","internalType":"uint256"},{"name":"name","type":"string","internalType":"string"},{"name":"party","type":"string","internalType":"string"},{"name":"imageURL","type":"string","internalType":"string"},{"name":"slogan","type":"string","internalType":"string"},{"name":"voteCount","type":"uint256","internalType":"uint256"}],"stateMutability":"view"},{"type":"function","name":"currentElectionId","inputs":[],"outputs":[{"name":"","type":"uint256","internalType":"uint256"}],"stateMutability":"view"},{"type":"function","name":"eip712Domain","inputs":[],"outputs":[{"name":"fields","type":"bytes1","internalType":"bytes1"},{"name":"name","type":"string","internalType":"string"},{"name":"version","type":"string","internalType":"string"},{"name":"chainId","type":"uint256","internalType":"uint256"},{"name":"verifyingContract","type":"address","internalType":"address"},{"name":"salt","type":"bytes32","internalType":"bytes32"},{"name":"extensions","type":"uint256[]","internalType":"uint256[]"}],"stateMutability":"view"},{"type":"function","name":"getCandidate","inputs":[{"name":"index","type":"uint256","internalType":"uint256"}],"outputs":[{"name":"id","type":"uint256","internalType":"uint256"},{"name":"name","type":"string","internalType":"string"},{"name":"party","type":"string","internalType":"string"},{"name":"imageURL","type":"string","internalType":"string"},{"name":"slogan","type":"string","internalType":"string"},{"name":"platform","type":"string[]","internalType":"string[]"},{"name":"voteCount","type":"uint256","internalType":"uint256"}],"stateMutability":"view"},{"type":"function","name":"getCandidateCount","inputs":[],"outputs":[{"name":"","type":"uint256","internalType":"uint256"}],"stateMutability":"view"},{"type":"function","name":"getVoteCount","inputs":[{"name":"candidateIndex","type":"uint256","internalType":"uint256"}],"outputs":[{"name":"","type":"uint256","internalType":"uint256"}],"stateMutability":"view"},{"type":"function","name":"issuer","inputs":[],"outputs":[{"name":"","type":"address","internalType":"address"}],"stateMutability":"view"},{"type":"function","name":"nullifiersUsed","inputs":[{"name":"","type":"bytes32","internalType":"bytes32"}],"outputs":[{"name":"","type":"bool","internalType":"bool"}],"stateMutability":"view"},{"type":"function","name":"owner","inputs":[],"outputs":[{"name":"","type":"address","internalType":"address"}],"stateMutability":"view"},{"type":"function","name":"renounceOwnership","inputs":[],"outputs":[],"stateMutability":"nonpayable"},{"type":"function","name":"startNewElection","inputs":[],"outputs":[],"stateMutability":"nonpayable"},{"type":"function","name":"transferOwnership","inputs":[{"name":"newOwner","type":"address","internalType":"address"}],"outputs":[],"stateMutability":"nonpayable"},{"type":"function","name":"vote","inputs":[{"name":"candidateId","type":"uint256","internalType":"uint256"},{"name":"cred","type":"tuple","internalType":"struct Voting.VoterCredential","components":[{"name":"subject","type":"address","internalType":"address"},{"name":"electionId","type":"uint256","internalType":"uint256"},{"name":"nonce","type":"bytes32","internalType":"bytes32"}]},{"name":"signature","type":"bytes","internalType":"bytes"}],"outputs":[],"stateMutability":"nonpayable"},{"type":"function","name":"votedInElection","inputs":[{"name":"","type":"address","internalType":"address"},{"name":"","type":"uint256","internalType":"uint256"}],"outputs":[{"name":"","type":"bool","internalType":"bool"}],"stateMutability":"view"},{"type":"event","name":"EIP712DomainChanged","inputs":[],"anonymous":false},{"type":"event","name":"OwnershipTransferred","inputs":[{"name":"previousOwner","type":"address","indexed":true,"internalType":"address"},{"name":"newOwner","type":"address","indexed":true,"internalType":"address"}],"anonymous":false},{"type":"event","name":"Voted","inputs":[{"name":"voter","type":"address","indexed":true,"internalType":"address"},{"name":"candidateId","type":"uint256","indexed":true,"internalType":"uint256"}],"anonymous":false},{"type":"error","name":"ECDSAInvalidSignature","inputs":[]},{"type":"error","name":"ECDSAInvalidSignatureLength","inputs":[{"name":"length","type":"uint256","internalType":"uint256"}]},{"type":"error","name":"ECDSAInvalidSignatureS","inputs":[{"name":"s","type":"bytes32","internalType":"bytes32"}]},{"type":"error","name":"InvalidShortString","inputs":[]},{"type":"error","name":"OwnableInvalidOwner","inputs":[{"name":"owner","type":"address","internalType":"address"}]},{"type":"error","name":"OwnableUnauthorizedAccount","inputs":[{"name":"account","type":"address","internalType":"address"}]},{"type":"error","name":"StringTooLong","inputs":[{"name":"str","type":"string","internalType":"string"}]}],"bytecode":{"object":"0x61018060405234801562000011575f80fd5b506040516200279a3803806200279a833981016040819052620000349162000850565b604080518082018252600e81526d44652d4372656420566f74696e6760901b602080830191909152825180840190935260018352603160f81b9083015233916200007f825f620006b5565b6101205262000090816001620006b5565b61014052815160208084019190912060e052815190820120610100524660a0526200011d60e05161010051604080517f8b73c3c69bb8fe3d512ecc4cf759cc79239f7b179b0ffacaa9a75d522b39400f60208201529081019290925260608201524660808201523060a08201525f9060c00160405160208183030381529060405280519060200120905090565b60805250503060c0526001600160a01b0381166200015557604051631e4fbdf760e01b81525f60048201526024015b60405180910390fd5b6200016081620006ed565b506001600160a01b03821661016052600381815560408051828152608081019091525f91816020015b6060815260200190600190039081620001895790505090506040518060400160405280600f81526020016e4a7564696369616c205265666f726d60881b815250815f81518110620001de57620001de6200089d565b60200260200101819052506040518060400160405280601881526020017f436f6e737469747574696f6e616c20496e746567726974790000000000000000815250816001815181106200023557620002356200089d565b60200260200101819052506040518060400160405280600b81526020016a52756c65206f66204c617760a81b815250816002815181106200027a576200027a6200089d565b6020908102919091018101919091526040805160e081018252600180825282518084018452600c81526b4461766964204d617261676160a01b8186015282850190815283518085018552600d81526c4a75737469636520506172747960981b818701528385015283518085018552600b81526a2f6d61726167612e6a706760a81b8187015260608401528351808501909452601084526f2a3432902630bb9034b99021b632b0b960811b94840194909452608082019290925260a081018490525f60c082018190526006805493840181559052805160079092025f805160206200277a8339815191528101928355925190925f805160206200275a83398151915201906200038990826200093b565b5060408201516002820190620003a090826200093b565b5060608201516003820190620003b790826200093b565b5060808201516004820190620003ce90826200093b565b5060a08201518051620003ec91600584019160209091019062000780565b5060c09190910151600690910155604080516003808252608082019092525f91816020015b60608152602001906001900390816200041157905050905060405180604001604052806011815260200170155c98985b8811195d995b1bdc1b595b9d607a1b815250815f815181106200046857620004686200089d565b602002602001018190525060405180604001604052806011815260200170165bdd5d1a08115b5c1bddd95c9b595b9d607a1b81525081600181518110620004b357620004b36200089d565b60200260200101819052506040518060400160405280601581526020017f5075626c6963204163636f756e746162696c6974790000000000000000000000815250816002815181106200050a576200050a6200089d565b6020908102919091018101919091526040805160e0810182526002815281518083018352600c8082526b456477696e20536966756e6160a01b8286015282850191825283518085018552601481527f50726f677265737369766520416c6c69616e63650000000000000000000000008187015283850152835180850185529081526b02f736966756e612e776562760a41b8186015260608301528251808401909352601583527f466f7220612042657474657220546f6d6f72726f77000000000000000000000093830193909352608081019190915260a081018390525f60c08201819052600680546001810182559152815160079091025f805160206200277a83398151915281019182559251919290915f805160206200275a833981519152909101906200063b90826200093b565b50604082015160028201906200065290826200093b565b50606082015160038201906200066990826200093b565b50608082015160048201906200068090826200093b565b5060a082015180516200069e91600584019160209091019062000780565b5060c0820151816006015550505050505062000a79565b5f602083511015620006d457620006cc836200073e565b9050620006e7565b81620006e184826200093b565b5060ff90505b92915050565b600280546001600160a01b038381166001600160a01b0319831681179093556040519116919082907f8be0079c531659141344cd1fd0a4f28419497f9722a3daafe3b4186f6b6457e0905f90a35050565b5f80829050601f815111156200076b578260405163305a27a960e01b81526004016200014c919062000a07565b8051620007788262000a55565b179392505050565b828054828255905f5260205f20908101928215620007c9579160200282015b82811115620007c95782518290620007b890826200093b565b50916020019190600101906200079f565b50620007d7929150620007db565b5090565b80821115620007d7575f620007f18282620007fb565b50600101620007db565b5080546200080990620008b1565b5f825580601f1062000819575050565b601f0160209004905f5260205f20908101906200083791906200083a565b50565b5b80821115620007d7575f81556001016200083b565b5f806040838503121562000862575f80fd5b82516001600160a01b038116811462000879575f80fd5b6020939093015192949293505050565b634e487b7160e01b5f52604160045260245ffd5b634e487b7160e01b5f52603260045260245ffd5b600181811c90821680620008c657607f821691505b602082108103620008e557634e487b7160e01b5f52602260045260245ffd5b50919050565b601f8211156200093657805f5260205f20601f840160051c81016020851015620009125750805b601f840160051c820191505b8181101562000933575f81556001016200091e565b50505b505050565b81516001600160401b0381111562000957576200095762000889565b6200096f81620009688454620008b1565b84620008eb565b602080601f831160018114620009a5575f84156200098d5750858301515b5f19600386901b1c1916600185901b178555620009ff565b5f85815260208120601f198616915b82811015620009d557888601518255948401946001909101908401620009b4565b5085821015620009f357878501515f19600388901b60f8161c191681555b505060018460011b0185555b505050505050565b5f602080835283518060208501525f5b8181101562000a355785810183015185820160400152820162000a17565b505f604082860101526040601f19601f8301168501019250505092915050565b80516020808301519190811015620008e5575f1960209190910360031b1b16919050565b60805160a05160c05160e05161010051610120516101405161016051611c7e62000adc5f395f818161010e01526103f301525f6110c101525f61109001525f6111c001525f61119801525f6110f301525f61111d01525f6111470152611c7e5ff3fe608060405234801561000f575f80fd5b50600436106100f0575f3560e01c80634b27cd6f1161009357806398ecf2a01161006357806398ecf2a01461022b5780639923dc6514610234578063b2c2f2e814610261578063f2fde38b14610274575f80fd5b80634b27cd6f146101c5578063715018a6146101f757806384b0196e146101ff5780638da5cb5b1461021a575f80fd5b806330a56347116100ce57806330a56347146101605780633477ee2e1461017257806335b8e8201461019757806347f33fb5146101bd575f80fd5b806312bb664f146100f45780631d14384814610109578063266b8a681461014d575b5f80fd5b6101076101023660046115a0565b610287565b005b6101307f000000000000000000000000000000000000000000000000000000000000000081565b6040516001600160a01b0390911681526020015b60405180910390f35b61010761015b366004611776565b610767565b6006545b604051908152602001610144565b61018561018036600461183f565b610885565b60405161014496959493929190611899565b6101aa6101a536600461183f565b610ae3565b60405161014497969594939291906118ff565b610107610e90565b6101e76101d336600461183f565b60046020525f908152604090205460ff1681565b6040519015158152602001610144565b610107610eae565b610207610ec1565b60405161014497969594939291906119be565b6002546001600160a01b0316610130565b61016460035481565b6101e7610242366004611a70565b600560209081525f928352604080842090915290825290205460ff1681565b61016461026f36600461183f565b610f03565b610107610282366004611a98565b610f74565b60055f6102976020860186611a98565b6001600160a01b0316815260208082019290925260409081015f90812086840135825290925290205460ff161561032f5760405162461bcd60e51b815260206004820152603160248201527f44652d437265643a20566f7465722068617320616c726561647920766f7465646044820152701034b7103a3434b99032b632b1ba34b7b760791b60648201526084015b60405180910390fd5b5f6103ad7facedfdb1d162621405980da65b956b7ea1431abf0c65a66796bb238d64d539af6103616020870187611a98565b604080516020818101949094526001600160a01b039092168282015291870135606082015290860135608082015260a00160405160208183030381529060405280519060200120610fb1565b90505f6103ef8285858080601f0160208091040260200160405190810160405280939291908181526020018383808284375f92019190915250610fe392505050565b90507f00000000000000000000000000000000000000000000000000000000000000006001600160a01b0316816001600160a01b0316146104805760405162461bcd60e51b815260206004820152602560248201527f44652d437265643a20496e76616c69642063726564656e7469616c207369676e604482015264617475726560d81b6064820152608401610326565b6001600160a01b0381166104d65760405162461bcd60e51b815260206004820152601760248201527f44652d437265643a20496e76616c6964207369676e65720000000000000000006044820152606401610326565b336104e46020870187611a98565b6001600160a01b0316146105455760405162461bcd60e51b815260206004820152602260248201527f44652d437265643a2043726564656e7469616c206973206e6f7420666f7220796044820152616f7560f01b6064820152608401610326565b5f8560400135866020013560405160200161056a929190918252602082015260400190565b60408051601f1981840301815291815281516020928301205f818152600490935291205490915060ff16156105f35760405162461bcd60e51b815260206004820152602960248201527f44652d437265643a2043726564656e7469616c2068617320616c7265616479206044820152681899595b881d5cd95960ba1b6064820152608401610326565b5f818152600460209081526040909120805460ff1916600117905560035490870135146106625760405162461bcd60e51b815260206004820152601760248201527f44652d437265643a2057726f6e6720656c656374696f6e0000000000000000006044820152606401610326565b60065487106106b35760405162461bcd60e51b815260206004820152601a60248201527f44652d437265643a20496e76616c69642063616e6469646174650000000000006044820152606401610326565b600687815481106106c6576106c6611ab8565b5f918252602082206006600790920201018054916106e383611acc565b909155506001905060055f6106fb60208a018a611a98565b6001600160a01b0316815260208082019290925260409081015f9081208a8401358252909252808220805460ff1916931515939093179092559051889133917f4d99b957a2bc29a30ebd96a7be8e68fe50a3c701db28a91436490b7d53870ca49190a350505050505050565b61076f61100b565b6040805160e0810182526006805480835260208301898152938301889052606083018790526080830186905260a083018590525f60c0840181905260018201835591909152815160079091027ff652222313e28459528d920b65115c16c04f3efc82aaedc97be59f3f377c0d3f81019182559251919290917ff652222313e28459528d920b65115c16c04f3efc82aaedc97be59f3f377c0d40909101906108169082611b74565b506040820151600282019061082b9082611b74565b50606082015160038201906108409082611b74565b50608082015160048201906108559082611b74565b5060a082015180516108719160058401916020909101906114ea565b5060c0820151816006015550505050505050565b60068181548110610894575f80fd5b5f91825260209091206007909102018054600182018054919350906108b890611af0565b80601f01602080910402602001604051908101604052809291908181526020018280546108e490611af0565b801561092f5780601f106109065761010080835404028352916020019161092f565b820191905f5260205f20905b81548152906001019060200180831161091257829003601f168201915b50505050509080600201805461094490611af0565b80601f016020809104026020016040519081016040528092919081815260200182805461097090611af0565b80156109bb5780601f10610992576101008083540402835291602001916109bb565b820191905f5260205f20905b81548152906001019060200180831161099e57829003601f168201915b5050505050908060030180546109d090611af0565b80601f01602080910402602001604051908101604052809291908181526020018280546109fc90611af0565b8015610a475780601f10610a1e57610100808354040283529160200191610a47565b820191905f5260205f20905b815481529060010190602001808311610a2a57829003601f168201915b505050505090806004018054610a5c90611af0565b80601f0160208091040260200160405190810160405280929190818152602001828054610a8890611af0565b8015610ad35780601f10610aaa57610100808354040283529160200191610ad3565b820191905f5260205f20905b815481529060010190602001808311610ab657829003601f168201915b5050505050908060060154905086565b5f60608060608060605f6006805490508810610b415760405162461bcd60e51b815260206004820152601d60248201527f43616e64696461746520696e646578206f7574206f6620626f756e64730000006044820152606401610326565b5f60068981548110610b5557610b55611ab8565b905f5260205f2090600702019050805f015481600101826002018360030184600401856005018660060154858054610b8c90611af0565b80601f0160208091040260200160405190810160405280929190818152602001828054610bb890611af0565b8015610c035780601f10610bda57610100808354040283529160200191610c03565b820191905f5260205f20905b815481529060010190602001808311610be657829003601f168201915b50505050509550848054610c1690611af0565b80601f0160208091040260200160405190810160405280929190818152602001828054610c4290611af0565b8015610c8d5780601f10610c6457610100808354040283529160200191610c8d565b820191905f5260205f20905b815481529060010190602001808311610c7057829003601f168201915b50505050509450838054610ca090611af0565b80601f0160208091040260200160405190810160405280929190818152602001828054610ccc90611af0565b8015610d175780601f10610cee57610100808354040283529160200191610d17565b820191905f5260205f20905b815481529060010190602001808311610cfa57829003601f168201915b50505050509350828054610d2a90611af0565b80601f0160208091040260200160405190810160405280929190818152602001828054610d5690611af0565b8015610da15780601f10610d7857610100808354040283529160200191610da1565b820191905f5260205f20905b815481529060010190602001808311610d8457829003601f168201915b5050505050925081805480602002602001604051908101604052809291908181526020015f905b82821015610e70578382905f5260205f20018054610de590611af0565b80601f0160208091040260200160405190810160405280929190818152602001828054610e1190611af0565b8015610e5c5780601f10610e3357610100808354040283529160200191610e5c565b820191905f5260205f20905b815481529060010190602001808311610e3f57829003601f168201915b505050505081526020019060010190610dc8565b505050509150975097509750975097509750975050919395979092949650565b610e9861100b565b60038054905f610ea783611acc565b9190505550565b610eb661100b565b610ebf5f611038565b565b5f6060805f805f6060610ed2611089565b610eda6110ba565b604080515f80825260208201909252600f60f81b9b939a50919850469750309650945092509050565b6006545f908210610f4a5760405162461bcd60e51b8152602060048201526011602482015270496e76616c69642063616e64696461746560781b6044820152606401610326565b60068281548110610f5d57610f5d611ab8565b905f5260205f209060070201600601549050919050565b610f7c61100b565b6001600160a01b038116610fa557604051631e4fbdf760e01b81525f6004820152602401610326565b610fae81611038565b50565b5f610fdd610fbd6110e7565b8360405161190160f01b8152600281019290925260228201526042902090565b92915050565b5f805f80610ff18686611210565b9250925092506110018282611259565b5090949350505050565b6002546001600160a01b03163314610ebf5760405163118cdaa760e01b8152336004820152602401610326565b600280546001600160a01b038381166001600160a01b0319831681179093556040519116919082907f8be0079c531659141344cd1fd0a4f28419497f9722a3daafe3b4186f6b6457e0905f90a35050565b60606110b57f00000000000000000000000000000000000000000000000000000000000000005f611315565b905090565b60606110b57f00000000000000000000000000000000000000000000000000000000000000006001611315565b5f306001600160a01b037f00000000000000000000000000000000000000000000000000000000000000001614801561113f57507f000000000000000000000000000000000000000000000000000000000000000046145b1561116957507f000000000000000000000000000000000000000000000000000000000000000090565b6110b5604080517f8b73c3c69bb8fe3d512ecc4cf759cc79239f7b179b0ffacaa9a75d522b39400f60208201527f0000000000000000000000000000000000000000000000000000000000000000918101919091527f000000000000000000000000000000000000000000000000000000000000000060608201524660808201523060a08201525f9060c00160405160208183030381529060405280519060200120905090565b5f805f8351604103611247576020840151604085015160608601515f1a611239888285856113be565b955095509550505050611252565b505081515f91506002905b9250925092565b5f82600381111561126c5761126c611c34565b03611275575050565b600182600381111561128957611289611c34565b036112a75760405163f645eedf60e01b815260040160405180910390fd5b60028260038111156112bb576112bb611c34565b036112dc5760405163fce698f760e01b815260048101829052602401610326565b60038260038111156112f0576112f0611c34565b03611311576040516335e2f38360e21b815260048101829052602401610326565b5050565b606060ff831461132f5761132883611486565b9050610fdd565b81805461133b90611af0565b80601f016020809104026020016040519081016040528092919081815260200182805461136790611af0565b80156113b25780601f10611389576101008083540402835291602001916113b2565b820191905f5260205f20905b81548152906001019060200180831161139557829003601f168201915b50505050509050610fdd565b5f80807f7fffffffffffffffffffffffffffffff5d576e7357a4501ddfe92f46681b20a08411156113f757505f9150600390508261147c565b604080515f808252602082018084528a905260ff891692820192909252606081018790526080810186905260019060a0016020604051602081039080840390855afa158015611448573d5f803e3d5ffd5b5050604051601f1901519150506001600160a01b03811661147357505f92506001915082905061147c565b92505f91508190505b9450945094915050565b60605f611492836114c3565b6040805160208082528183019092529192505f91906020820181803683375050509182525060208101929092525090565b5f60ff8216601f811115610fdd57604051632cd44ac360e21b815260040160405180910390fd5b828054828255905f5260205f2090810192821561152e579160200282015b8281111561152e578251829061151e9082611b74565b5091602001919060010190611508565b5061153a92915061153e565b5090565b8082111561153a575f611551828261155a565b5060010161153e565b50805461156690611af0565b5f825580601f10611575575050565b601f0160209004905f5260205f2090810190610fae91905b8082111561153a575f815560010161158d565b5f805f8084860360a08112156115b4575f80fd5b853594506060601f19820112156115c9575f80fd5b50602085019250608085013567ffffffffffffffff808211156115ea575f80fd5b818701915087601f8301126115fd575f80fd5b81358181111561160b575f80fd5b88602082850101111561161c575f80fd5b95989497505060200194505050565b634e487b7160e01b5f52604160045260245ffd5b604051601f8201601f1916810167ffffffffffffffff811182821017156116685761166861162b565b604052919050565b5f82601f83011261167f575f80fd5b813567ffffffffffffffff8111156116995761169961162b565b6116ac601f8201601f191660200161163f565b8181528460208386010111156116c0575f80fd5b816020850160208301375f918101602001919091529392505050565b5f82601f8301126116eb575f80fd5b8135602067ffffffffffffffff808311156117085761170861162b565b8260051b61171783820161163f565b9384528581018301938381019088861115611730575f80fd5b84880192505b8583101561176a5782358481111561174c575f80fd5b61175a8a87838c0101611670565b8352509184019190840190611736565b98975050505050505050565b5f805f805f60a0868803121561178a575f80fd5b853567ffffffffffffffff808211156117a1575f80fd5b6117ad89838a01611670565b965060208801359150808211156117c2575f80fd5b6117ce89838a01611670565b955060408801359150808211156117e3575f80fd5b6117ef89838a01611670565b94506060880135915080821115611804575f80fd5b61181089838a01611670565b93506080880135915080821115611825575f80fd5b50611832888289016116dc565b9150509295509295909350565b5f6020828403121561184f575f80fd5b5035919050565b5f81518084525f5b8181101561187a5760208185018101518683018201520161185e565b505f602082860101526020601f19601f83011685010191505092915050565b86815260c060208201525f6118b160c0830188611856565b82810360408401526118c38188611856565b905082810360608401526118d78187611856565b905082810360808401526118eb8186611856565b9150508260a0830152979650505050505050565b8781525f602060e08184015261191860e084018a611856565b838103604085015261192a818a611856565b9050838103606085015261193e8189611856565b905083810360808501526119528188611856565b905083810360a08501528086518083528383019150838160051b8401018489015f5b838110156119a257601f19868403018552611990838351611856565b94870194925090860190600101611974565b505080955050505050508260c083015298975050505050505050565b60ff60f81b881681525f602060e060208401526119de60e084018a611856565b83810360408501526119f0818a611856565b606085018990526001600160a01b038816608086015260a0850187905284810360c0860152855180825260208088019350909101905f5b81811015611a4357835183529284019291840191600101611a27565b50909c9b505050505050505050505050565b80356001600160a01b0381168114611a6b575f80fd5b919050565b5f8060408385031215611a81575f80fd5b611a8a83611a55565b946020939093013593505050565b5f60208284031215611aa8575f80fd5b611ab182611a55565b9392505050565b634e487b7160e01b5f52603260045260245ffd5b5f60018201611ae957634e487b7160e01b5f52601160045260245ffd5b5060010190565b600181811c90821680611b0457607f821691505b602082108103611b2257634e487b7160e01b5f52602260045260245ffd5b50919050565b601f821115611b6f57805f5260205f20601f840160051c81016020851015611b4d5750805b601f840160051c820191505b81811015611b6c575f8155600101611b59565b50505b505050565b815167ffffffffffffffff811115611b8e57611b8e61162b565b611ba281611b9c8454611af0565b84611b28565b602080601f831160018114611bd5575f8415611bbe5750858301515b5f19600386901b1c1916600185901b178555611c2c565b5f85815260208120601f198616915b82811015611c0357888601518255948401946001909101908401611be4565b5085821015611c2057878501515f19600388901b60f8161c191681555b505060018460011b0185555b505050505050565b634e487b7160e01b5f52602160045260245ffdfea2646970667358221220db95d1a14e7ec985efa9034cecbc4ec36bd8321b780407e51a1ca644e338098264736f6c63430008180033f652222313e28459528d920b65115c16c04f3efc82aaedc97be59f3f377c0d40f652222313e28459528d920b65115c16c04f3efc82aaedc97be59f3f377c0d3f","linkReferences":{}},"methodIdentifiers":{"addCandidate(string,string,string,string,string[])":"266b8a68","candidates(uint256)":"3477ee2e","currentElectionId()":"98ecf2a0","eip712Domain()":"84b0196e","getCandidate(uint256)":"35b8e820","getCandidateCount()":"30a56347","getVoteCount(uint256)":"b2c2f2e8","issuer()":"1d143848","nullifiersUsed(bytes32)":"4b27cd6f","owner()":"8da5cb5b","renounceOwnership()":"715018a6","startNewElection()":"47f33fb5","transferOwnership(address)":"f2fde38b","vote(uint256,(address,uint256,bytes32),bytes)":"12bb664f","votedInElection(address,uint256)":"9923dc65"},"id":30}